{
  "contractName": "Voting",
  "abi": [
    {
      "constant": true,
      "inputs": [
        {
          "name": "",
          "type": "bytes32"
        }
      ],
      "name": "votesReceived",
      "outputs": [
        {
          "name": "",
          "type": "uint256"
        }
      ],
      "payable": false,
      "stateMutability": "view",
      "type": "function"
    },
    {
      "constant": true,
      "inputs": [
        {
          "name": "",
          "type": "uint256"
        }
      ],
      "name": "candidateList",
      "outputs": [
        {
          "name": "",
          "type": "bytes32"
        }
      ],
      "payable": false,
      "stateMutability": "view",
      "type": "function"
    },
    {
      "inputs": [
        {
          "name": "candidateNames",
          "type": "bytes32[]"
        }
      ],
      "payable": false,
      "stateMutability": "nonpayable",
      "type": "constructor"
    },
    {
      "constant": true,
      "inputs": [
        {
          "name": "candidate",
          "type": "bytes32"
        }
      ],
      "name": "totalVotesFor",
      "outputs": [
        {
          "name": "",
          "type": "uint256"
        }
      ],
      "payable": false,
      "stateMutability": "view",
      "type": "function"
    },
    {
      "constant": false,
      "inputs": [
        {
          "name": "candidate",
          "type": "bytes32"
        }
      ],
      "name": "voteForCandidate",
      "outputs": [],
      "payable": true,
      "stateMutability": "payable",
      "type": "function"
    },
    {
      "constant": true,
      "inputs": [
        {
          "name": "candidate",
          "type": "bytes32"
        }
      ],
      "name": "validCandidate",
      "outputs": [
        {
          "name": "",
          "type": "bool"
        }
      ],
      "payable": false,
      "stateMutability": "view",
      "type": "function"
    }
  ],
  "bytecode": "0x608060405234801561001057600080fd5b506040516105fe3803806105fe8339810180604052602081101561003357600080fd5b81019080805164010000000081111561004b57600080fd5b8281019050602081018481111561006157600080fd5b815185602082028301116401000000008211171561007e57600080fd5b5050929190505050806002908051906020019061009c9291906100a3565b5050610115565b8280548282559060005260206000209081019282156100df579160200282015b828111156100de5782518255916020019190600101906100c3565b5b5090506100ec91906100f0565b5090565b61011291905b8082111561010e5760008160009055506001016100f6565b5090565b90565b6104da806101246000396000f3fe60806040526004361061004a5760003560e01c80632f265cf71461004f578063392e66781461009e5780637021939f146100f1578063b13c744b14610140578063cc9ab2671461018f575b600080fd5b34801561005b57600080fd5b506100886004803603602081101561007257600080fd5b81019080803590602001909291905050506101bd565b6040518082815260200191505060405180910390f35b3480156100aa57600080fd5b506100d7600480360360208110156100c157600080fd5b8101908080359060200190929190505050610254565b604051808215151515815260200191505060405180910390f35b3480156100fd57600080fd5b5061012a6004803603602081101561011457600080fd5b81019080803590602001909291905050506102aa565b6040518082815260200191505060405180910390f35b34801561014c57600080fd5b506101796004803603602081101561016357600080fd5b81019080803590602001909291905050506102c2565b6040518082815260200191505060405180910390f35b6101bb600480360360208110156101a557600080fd5b81019080803590602001909291905050506102e3565b005b60006101c882610254565b61023a576040517f08c379a00000000000000000000000000000000000000000000000000000000081526004018080602001828103825260088152602001807f4e6f2076616c696400000000000000000000000000000000000000000000000081525060200191505060405180910390fd5b600080838152602001908152602001600020549050919050565b600080600090505b60028054905081101561029f57826002828154811061027757fe5b906000526020600020015414156102925760019150506102a5565b808060010191505061025c565b50600090505b919050565b60006020528060005260406000206000915090505481565b600281815481106102cf57fe5b906000526020600020016000915090505481565b6102ec81610254565b61035e576040517f08c379a00000000000000000000000000000000000000000000000000000000081526004018080602001828103825260088152602001807f4e6f2076616c696400000000000000000000000000000000000000000000000081525060200191505060405180910390fd5b600160003373ffffffffffffffffffffffffffffffffffffffff1673ffffffffffffffffffffffffffffffffffffffff16815260200190815260200160002060009054906101000a900460ff161561041e576040517f08c379a00000000000000000000000000000000000000000000000000000000081526004018080602001828103825260128152602001807f61646472657373206861766520766f746564000000000000000000000000000081525060200191505060405180910390fd5b60018060003373ffffffffffffffffffffffffffffffffffffffff1673ffffffffffffffffffffffffffffffffffffffff16815260200190815260200160002060006101000a81548160ff0219169083151502179055506000662386f26fc10000348161048757fe5b0490508060008084815260200190815260200160002060008282540192505081905550505056fea165627a7a723058207ed3d909a25ad8ae75497d485115f65cf79f00f509917b99e22ff532fbb9cb690029",
  "source": "pragma solidity ^0.5.0;\n\n\ncontract Voting {\n    //每个人获得的投票数量\n    mapping (bytes32 => uint) public votesReceived;\n    //每个账户只能投一次票\n    mapping (address => bool) private addrRecorded;\n\n    bytes32[] public candidateList;\n\n    constructor(bytes32[] memory candidateNames) public {\n        candidateList = candidateNames;\n    }\n\n    //返回每一个人所有的投票数\n    function totalVotesFor(bytes32 candidate) view public returns (uint) {\n        require(validCandidate(candidate), \"No valid\");\n\n        return votesReceived[candidate];\n    }\n\n    function voteForCandidate(bytes32 candidate) payable public {\n        require(validCandidate(candidate), \"No valid\");\n        require(!addrRecorded[msg.sender], \"address have voted\");\n        addrRecorded[msg.sender] = true;\n        uint amount = msg.value / 0.01 ether;\n        votesReceived[candidate] += amount;\n    }\n\n    function validCandidate(bytes32 candidate) view public returns (bool) {\n        for(uint i = 0; i < candidateList.length; i++){\n            if(candidateList[i] == candidate) {\n                return true;\n            }\n        }\n        return false;\n    }\n}\n",
  "sourcePath": "/home/palm/workspace/voting/contracts/Voting.sol",
  "compiler": {
    "name": "solc",
    "version": "0.5.8+commit.23d335f2.Emscripten.clang"
  },
  "schemaVersion": "3.0.11",
  "updatedAt": "2019-07-16T05:40:28.277Z",
  "devdoc": {
    "methods": {}
  },
  "userdoc": {
    "methods": {}
  }
}